{
  "contractName": "Counter",
  "abi": [
    {
      "constant": false,
      "inputs": [
        {
          "name": "num",
          "type": "uint256"
        }
      ],
      "name": "initialize",
      "outputs": [],
      "payable": false,
      "stateMutability": "nonpayable",
      "type": "function"
    },
    {
      "constant": true,
      "inputs": [],
      "name": "owner",
      "outputs": [
        {
          "name": "",
          "type": "address"
        }
      ],
      "payable": false,
      "stateMutability": "view",
      "type": "function"
    },
    {
      "constant": true,
      "inputs": [],
      "name": "getCounter",
      "outputs": [
        {
          "name": "",
          "type": "uint256"
        }
      ],
      "payable": false,
      "stateMutability": "view",
      "type": "function"
    },
    {
      "constant": false,
      "inputs": [
        {
          "name": "amount",
          "type": "uint256"
        }
      ],
      "name": "increaseCounter",
      "outputs": [],
      "payable": false,
      "stateMutability": "nonpayable",
      "type": "function"
    }
  ],
  "bytecode": "0x608060405234801561001057600080fd5b5061035c806100206000396000f3fe608060405260043610610062576000357c0100000000000000000000000000000000000000000000000000000000900463ffffffff1680638ada066e146100675780638da5cb5b146100925780639e80c074146100e9578063fe4b84df14610124575b600080fd5b34801561007357600080fd5b5061007c61015f565b6040518082815260200191505060405180910390f35b34801561009e57600080fd5b506100a7610169565b604051808273ffffffffffffffffffffffffffffffffffffffff1673ffffffffffffffffffffffffffffffffffffffff16815260200191505060405180910390f35b3480156100f557600080fd5b506101226004803603602081101561010c57600080fd5b8101908080359060200190929190505050610193565b005b34801561013057600080fd5b5061015d6004803603602081101561014757600080fd5b81019080803590602001909291905050506101a1565b005b6000603354905090565b6000603460009054906101000a900473ffffffffffffffffffffffffffffffffffffffff16905090565b806033540160338190555050565b600060019054906101000a900460ff16806101c057506101bf61031f565b5b806101d757506000809054906101000a900460ff16155b1515610271576040517f08c379a000000000000000000000000000000000000000000000000000000000815260040180806020018281038252602e8152602001807f436f6e747261637420696e7374616e63652068617320616c726561647920626581526020017f656e20696e697469616c697a656400000000000000000000000000000000000081525060400191505060405180910390fd5b60008060019054906101000a900460ff1690506001600060016101000a81548160ff02191690831515021790555060016000806101000a81548160ff02191690831515021790555033603460006101000a81548173ffffffffffffffffffffffffffffffffffffffff021916908373ffffffffffffffffffffffffffffffffffffffff1602179055508160338190555080600060016101000a81548160ff0219169083151502179055505050565b600080303b9050600081149150509056fea165627a7a723058204be760ac81444dd6a63d557e99edc31043ff6a0598ffae7f7c5281d1843c3e760029",
  "source": "pragma solidity ^0.5.0;\n\n// import \"openzeppelin-eth/contracts/ownership/Ownable.sol\";\nimport \"zos-lib/contracts/Initializable.sol\";\n\ncontract Counter is Initializable {\n  //it keeps a count to demonstrate stage changes\n  uint private count;\n  address private _owner;\n\n  function initialize(uint num) public initializer {\n    _owner = msg.sender;\n    count = num;\n  }\n\n  function owner() public view returns (address) {\n    return _owner;\n  }\n\n  // getter\n  function getCounter() public view returns (uint) {\n    return count;\n  }\n\n  //and it can add to a count\n  function increaseCounter(uint256 amount) public {\n    count = count + amount;\n  }\n\n  //We'll upgrade the contract with this function after deploying it\n  //Function to decrease the counter\n  // function decreaseCounter(uint256 amount) public returns (bool) {\n  //   require(count > amount, \"Cannot be lower than 0\");\n  //   count = count - amount;\n  //   return true;\n  // }\n}\n",
  "sourcePath": "/Users/unomasanori/projects/DEMO_MVP/delegate-broadcast/contracts/Counter.sol",
  "compiler": {
    "name": "solc",
    "version": "0.5.0+commit.1d4f565a.Emscripten.clang"
  },
  "schemaVersion": "3.0.1",
  "updatedAt": "2019-08-01T14:36:57.503Z",
  "devdoc": {
    "methods": {}
  },
  "userdoc": {
    "methods": {}
  }
}