{
  "contractName": "Exchange",
  "abi": [
    {
      "constant": true,
      "inputs": [
        {
          "name": "",
          "type": "uint256"
        }
      ],
      "name": "proposals",
      "outputs": [
        {
          "name": "name",
          "type": "bytes32"
        },
        {
          "name": "voteCount",
          "type": "uint256"
        }
      ],
      "payable": false,
      "stateMutability": "view",
      "type": "function",
      "signature": "0x013cf08b"
    },
    {
      "constant": true,
      "inputs": [
        {
          "name": "interfaceId",
          "type": "bytes4"
        }
      ],
      "name": "supportsInterface",
      "outputs": [
        {
          "name": "",
          "type": "bool"
        }
      ],
      "payable": false,
      "stateMutability": "view",
      "type": "function",
      "signature": "0x01ffc9a7"
    },
    {
      "constant": true,
      "inputs": [],
      "name": "name",
      "outputs": [
        {
          "name": "",
          "type": "string"
        }
      ],
      "payable": false,
      "stateMutability": "view",
      "type": "function",
      "signature": "0x06fdde03"
    },
    {
      "constant": true,
      "inputs": [
        {
          "name": "tokenId",
          "type": "uint256"
        }
      ],
      "name": "getApproved",
      "outputs": [
        {
          "name": "",
          "type": "address"
        }
      ],
      "payable": false,
      "stateMutability": "view",
      "type": "function",
      "signature": "0x081812fc"
    },
    {
      "constant": true,
      "inputs": [],
      "name": "seller",
      "outputs": [
        {
          "name": "",
          "type": "address"
        }
      ],
      "payable": false,
      "stateMutability": "view",
      "type": "function",
      "signature": "0x08551a53"
    },
    {
      "constant": false,
      "inputs": [
        {
          "name": "to",
          "type": "address"
        },
        {
          "name": "tokenId",
          "type": "uint256"
        }
      ],
      "name": "approve",
      "outputs": [],
      "payable": false,
      "stateMutability": "nonpayable",
      "type": "function",
      "signature": "0x095ea7b3"
    },
    {
      "constant": true,
      "inputs": [],
      "name": "tokenId",
      "outputs": [
        {
          "name": "",
          "type": "uint256"
        }
      ],
      "payable": false,
      "stateMutability": "view",
      "type": "function",
      "signature": "0x17d70f7c"
    },
    {
      "constant": true,
      "inputs": [],
      "name": "totalSupply",
      "outputs": [
        {
          "name": "",
          "type": "uint256"
        }
      ],
      "payable": false,
      "stateMutability": "view",
      "type": "function",
      "signature": "0x18160ddd"
    },
    {
      "constant": false,
      "inputs": [
        {
          "name": "from",
          "type": "address"
        },
        {
          "name": "to",
          "type": "address"
        },
        {
          "name": "tokenId",
          "type": "uint256"
        }
      ],
      "name": "transferFrom",
      "outputs": [],
      "payable": false,
      "stateMutability": "nonpayable",
      "type": "function",
      "signature": "0x23b872dd"
    },
    {
      "constant": true,
      "inputs": [],
      "name": "chairperson",
      "outputs": [
        {
          "name": "",
          "type": "address"
        }
      ],
      "payable": false,
      "stateMutability": "view",
      "type": "function",
      "signature": "0x2e4176cf"
    },
    {
      "constant": true,
      "inputs": [
        {
          "name": "owner",
          "type": "address"
        },
        {
          "name": "index",
          "type": "uint256"
        }
      ],
      "name": "tokenOfOwnerByIndex",
      "outputs": [
        {
          "name": "",
          "type": "uint256"
        }
      ],
      "payable": false,
      "stateMutability": "view",
      "type": "function",
      "signature": "0x2f745c59"
    },
    {
      "constant": true,
      "inputs": [],
      "name": "value",
      "outputs": [
        {
          "name": "",
          "type": "uint256"
        }
      ],
      "payable": false,
      "stateMutability": "view",
      "type": "function",
      "signature": "0x3fa4f245"
    },
    {
      "constant": true,
      "inputs": [
        {
          "name": "",
          "type": "uint256"
        }
      ],
      "name": "powers",
      "outputs": [
        {
          "name": "ownerAddr",
          "type": "address"
        },
        {
          "name": "energyType",
          "type": "string"
        },
        {
          "name": "timestamp",
          "type": "uint256"
        },
        {
          "name": "price",
          "type": "uint256"
        }
      ],
      "payable": false,
      "stateMutability": "view",
      "type": "function",
      "signature": "0x40c1bfab"
    },
    {
      "constant": false,
      "inputs": [
        {
          "name": "from",
          "type": "address"
        },
        {
          "name": "to",
          "type": "address"
        },
        {
          "name": "tokenId",
          "type": "uint256"
        }
      ],
      "name": "safeTransferFrom",
      "outputs": [],
      "payable": false,
      "stateMutability": "nonpayable",
      "type": "function",
      "signature": "0x42842e0e"
    },
    {
      "constant": true,
      "inputs": [
        {
          "name": "index",
          "type": "uint256"
        }
      ],
      "name": "tokenByIndex",
      "outputs": [
        {
          "name": "",
          "type": "uint256"
        }
      ],
      "payable": false,
      "stateMutability": "view",
      "type": "function",
      "signature": "0x4f6ccce7"
    },
    {
      "constant": true,
      "inputs": [
        {
          "name": "tokenId",
          "type": "uint256"
        }
      ],
      "name": "ownerOf",
      "outputs": [
        {
          "name": "",
          "type": "address"
        }
      ],
      "payable": false,
      "stateMutability": "view",
      "type": "function",
      "signature": "0x6352211e"
    },
    {
      "constant": true,
      "inputs": [
        {
          "name": "owner",
          "type": "address"
        }
      ],
      "name": "balanceOf",
      "outputs": [
        {
          "name": "",
          "type": "uint256"
        }
      ],
      "payable": false,
      "stateMutability": "view",
      "type": "function",
      "signature": "0x70a08231"
    },
    {
      "constant": false,
      "inputs": [],
      "name": "renounceOwnership",
      "outputs": [],
      "payable": false,
      "stateMutability": "nonpayable",
      "type": "function",
      "signature": "0x715018a6"
    },
    {
      "constant": true,
      "inputs": [],
      "name": "buyer",
      "outputs": [
        {
          "name": "",
          "type": "address"
        }
      ],
      "payable": false,
      "stateMutability": "view",
      "type": "function",
      "signature": "0x7150d8ae"
    },
    {
      "constant": false,
      "inputs": [
        {
          "name": "_to",
          "type": "address"
        }
      ],
      "name": "mintTo",
      "outputs": [],
      "payable": false,
      "stateMutability": "nonpayable",
      "type": "function",
      "signature": "0x755edd17"
    },
    {
      "constant": true,
      "inputs": [],
      "name": "owner",
      "outputs": [
        {
          "name": "",
          "type": "address"
        }
      ],
      "payable": false,
      "stateMutability": "view",
      "type": "function",
      "signature": "0x8da5cb5b"
    },
    {
      "constant": true,
      "inputs": [],
      "name": "isOwner",
      "outputs": [
        {
          "name": "",
          "type": "bool"
        }
      ],
      "payable": false,
      "stateMutability": "view",
      "type": "function",
      "signature": "0x8f32d59b"
    },
    {
      "constant": true,
      "inputs": [],
      "name": "symbol",
      "outputs": [
        {
          "name": "",
          "type": "string"
        }
      ],
      "payable": false,
      "stateMutability": "view",
      "type": "function",
      "signature": "0x95d89b41"
    },
    {
      "constant": false,
      "inputs": [
        {
          "name": "to",
          "type": "address"
        },
        {
          "name": "approved",
          "type": "bool"
        }
      ],
      "name": "setApprovalForAll",
      "outputs": [],
      "payable": false,
      "stateMutability": "nonpayable",
      "type": "function",
      "signature": "0xa22cb465"
    },
    {
      "constant": true,
      "inputs": [
        {
          "name": "",
          "type": "address"
        }
      ],
      "name": "voters",
      "outputs": [
        {
          "name": "weight",
          "type": "uint256"
        },
        {
          "name": "voted",
          "type": "bool"
        },
        {
          "name": "delegate",
          "type": "address"
        },
        {
          "name": "vote",
          "type": "uint256"
        }
      ],
      "payable": false,
      "stateMutability": "view",
      "type": "function",
      "signature": "0xa3ec138d"
    },
    {
      "constant": false,
      "inputs": [
        {
          "name": "from",
          "type": "address"
        },
        {
          "name": "to",
          "type": "address"
        },
        {
          "name": "tokenId",
          "type": "uint256"
        },
        {
          "name": "_data",
          "type": "bytes"
        }
      ],
      "name": "safeTransferFrom",
      "outputs": [],
      "payable": false,
      "stateMutability": "nonpayable",
      "type": "function",
      "signature": "0xb88d4fde"
    },
    {
      "constant": true,
      "inputs": [],
      "name": "state",
      "outputs": [
        {
          "name": "",
          "type": "uint8"
        }
      ],
      "payable": false,
      "stateMutability": "view",
      "type": "function",
      "signature": "0xc19d93fb"
    },
    {
      "constant": true,
      "inputs": [
        {
          "name": "_tokenId",
          "type": "uint256"
        }
      ],
      "name": "tokenURI",
      "outputs": [
        {
          "name": "",
          "type": "string"
        }
      ],
      "payable": false,
      "stateMutability": "view",
      "type": "function",
      "signature": "0xc87b56dd"
    },
    {
      "constant": true,
      "inputs": [],
      "name": "baseTokenURI",
      "outputs": [
        {
          "name": "",
          "type": "string"
        }
      ],
      "payable": false,
      "stateMutability": "view",
      "type": "function",
      "signature": "0xd547cfb7"
    },
    {
      "constant": true,
      "inputs": [
        {
          "name": "owner",
          "type": "address"
        },
        {
          "name": "operator",
          "type": "address"
        }
      ],
      "name": "isApprovedForAll",
      "outputs": [
        {
          "name": "",
          "type": "bool"
        }
      ],
      "payable": false,
      "stateMutability": "view",
      "type": "function",
      "signature": "0xe985e9c5"
    },
    {
      "inputs": [
        {
          "name": "_seller",
          "type": "address"
        },
        {
          "name": "_name",
          "type": "string"
        },
        {
          "name": "_symbol",
          "type": "string"
        },
        {
          "name": "_proxyRegistryAddress",
          "type": "address"
        },
        {
          "name": "proposalNames",
          "type": "bytes32[]"
        }
      ],
      "payable": true,
      "stateMutability": "payable",
      "type": "constructor",
      "signature": "constructor"
    },
    {
      "anonymous": false,
      "inputs": [
        {
          "indexed": false,
          "name": "ownerAddr",
          "type": "address"
        },
        {
          "indexed": false,
          "name": "tokenId",
          "type": "uint256"
        },
        {
          "indexed": false,
          "name": "energyType",
          "type": "string"
        },
        {
          "indexed": false,
          "name": "timestamp",
          "type": "uint256"
        },
        {
          "indexed": false,
          "name": "price",
          "type": "uint256"
        }
      ],
      "name": "ListingRegister",
      "type": "event",
      "signature": "0x4331cc443ebc4ea0b8056bfcfb104a0ca6d036604cb530d94d3c48041a966fcf"
    },
    {
      "anonymous": false,
      "inputs": [],
      "name": "Aborted",
      "type": "event",
      "signature": "0x72c874aeff0b183a56e2b79c71b46e1aed4dee5e09862134b8821ba2fddbf8bf"
    },
    {
      "anonymous": false,
      "inputs": [],
      "name": "PurchaseConfirmed",
      "type": "event",
      "signature": "0xd5d55c8a68912e9a110618df8d5e2e83b8d83211c57a8ddd1203df92885dc881"
    },
    {
      "anonymous": false,
      "inputs": [],
      "name": "ItemReceived",
      "type": "event",
      "signature": "0xe89152acd703c9d8c7d28829d443260b411454d45394e7995815140c8cbcbcf7"
    },
    {
      "anonymous": false,
      "inputs": [
        {
          "indexed": true,
          "name": "previousOwner",
          "type": "address"
        },
        {
          "indexed": true,
          "name": "newOwner",
          "type": "address"
        },
        {
          "indexed": true,
          "name": "tokenId",
          "type": "uint256"
        }
      ],
      "name": "OwnershipTransferred",
      "type": "event",
      "signature": "0xc13a1166d81cd3b0b352a367aebab95f3a6f6bc695fdab8e9a9d335239c3861b"
    },
    {
      "anonymous": false,
      "inputs": [
        {
          "indexed": true,
          "name": "previousOwner",
          "type": "address"
        },
        {
          "indexed": true,
          "name": "newOwner",
          "type": "address"
        }
      ],
      "name": "OwnershipTransferred",
      "type": "event",
      "signature": "0x8be0079c531659141344cd1fd0a4f28419497f9722a3daafe3b4186f6b6457e0"
    },
    {
      "anonymous": false,
      "inputs": [
        {
          "indexed": true,
          "name": "from",
          "type": "address"
        },
        {
          "indexed": true,
          "name": "to",
          "type": "address"
        },
        {
          "indexed": true,
          "name": "tokenId",
          "type": "uint256"
        }
      ],
      "name": "Transfer",
      "type": "event",
      "signature": "0xddf252ad1be2c89b69c2b068fc378daa952ba7f163c4a11628f55a4df523b3ef"
    },
    {
      "anonymous": false,
      "inputs": [
        {
          "indexed": true,
          "name": "owner",
          "type": "address"
        },
        {
          "indexed": true,
          "name": "approved",
          "type": "address"
        },
        {
          "indexed": true,
          "name": "tokenId",
          "type": "uint256"
        }
      ],
      "name": "Approval",
      "type": "event",
      "signature": "0x8c5be1e5ebec7d5bd14f71427d1e84f3dd0314c0f7b2291e5b200ac8c7c3b925"
    },
    {
      "anonymous": false,
      "inputs": [
        {
          "indexed": true,
          "name": "owner",
          "type": "address"
        },
        {
          "indexed": true,
          "name": "operator",
          "type": "address"
        },
        {
          "indexed": false,
          "name": "approved",
          "type": "bool"
        }
      ],
      "name": "ApprovalForAll",
      "type": "event",
      "signature": "0x17307eab39ab6107e8899845ad3d59bd9653f200f220920489ca2b5937696c31"
    },
    {
      "constant": false,
      "inputs": [
        {
          "name": "_ownerAddr",
          "type": "address"
        },
        {
          "name": "_energyType",
          "type": "string"
        },
        {
          "name": "_price",
          "type": "uint256"
        }
      ],
      "name": "listingRegister",
      "outputs": [
        {
          "name": "",
          "type": "address"
        },
        {
          "name": "",
          "type": "uint256"
        },
        {
          "name": "",
          "type": "string"
        },
        {
          "name": "",
          "type": "uint256"
        },
        {
          "name": "",
          "type": "uint256"
        }
      ],
      "payable": false,
      "stateMutability": "nonpayable",
      "type": "function",
      "signature": "0x5cbfbc89"
    },
    {
      "constant": false,
      "inputs": [],
      "name": "listingIndex",
      "outputs": [
        {
          "name": "",
          "type": "bool"
        }
      ],
      "payable": false,
      "stateMutability": "nonpayable",
      "type": "function",
      "signature": "0x3ae35156"
    },
    {
      "constant": true,
      "inputs": [
        {
          "name": "tokenId",
          "type": "uint256"
        }
      ],
      "name": "listingDetail",
      "outputs": [
        {
          "name": "",
          "type": "address"
        },
        {
          "name": "",
          "type": "string"
        },
        {
          "name": "",
          "type": "uint256"
        },
        {
          "name": "",
          "type": "uint256"
        }
      ],
      "payable": false,
      "stateMutability": "view",
      "type": "function",
      "signature": "0x8f911b6e"
    },
    {
      "constant": false,
      "inputs": [
        {
          "name": "owner",
          "type": "address"
        },
        {
          "name": "tokenId",
          "type": "uint256"
        }
      ],
      "name": "Buy",
      "outputs": [
        {
          "name": "",
          "type": "bool"
        }
      ],
      "payable": false,
      "stateMutability": "nonpayable",
      "type": "function",
      "signature": "0xe3d4187f"
    },
    {
      "constant": false,
      "inputs": [
        {
          "name": "owner",
          "type": "address"
        },
        {
          "name": "tokenId",
          "type": "uint256"
        }
      ],
      "name": "Sell",
      "outputs": [
        {
          "name": "",
          "type": "bool"
        }
      ],
      "payable": false,
      "stateMutability": "nonpayable",
      "type": "function",
      "signature": "0x5e5e995c"
    },
    {
      "constant": false,
      "inputs": [],
      "name": "abort",
      "outputs": [],
      "payable": false,
      "stateMutability": "nonpayable",
      "type": "function",
      "signature": "0x35a063b4"
    },
    {
      "constant": false,
      "inputs": [],
      "name": "confirmPurchase",
      "outputs": [],
      "payable": true,
      "stateMutability": "payable",
      "type": "function",
      "signature": "0xd6960697"
    },
    {
      "constant": false,
      "inputs": [],
      "name": "confirmReceived",
      "outputs": [],
      "payable": false,
      "stateMutability": "nonpayable",
      "type": "function",
      "signature": "0x73fac6f0"
    },
    {
      "constant": false,
      "inputs": [
        {
          "name": "newOwner",
          "type": "address"
        }
      ],
      "name": "transferOwnership",
      "outputs": [],
      "payable": false,
      "stateMutability": "nonpayable",
      "type": "function",
      "signature": "0xf2fde38b"
    },
    {
      "constant": false,
      "inputs": [
        {
          "name": "newOwner",
          "type": "address"
        },
        {
          "name": "tokenId",
          "type": "uint256"
        }
      ],
      "name": "transferOwnership",
      "outputs": [],
      "payable": false,
      "stateMutability": "nonpayable",
      "type": "function",
      "signature": "0x0a276680"
    },
    {
      "constant": false,
      "inputs": [
        {
          "name": "voter",
          "type": "address"
        }
      ],
      "name": "giveRightToVote",
      "outputs": [],
      "payable": false,
      "stateMutability": "nonpayable",
      "type": "function",
      "signature": "0x9e7b8d61"
    },
    {
      "constant": false,
      "inputs": [
        {
          "name": "to",
          "type": "address"
        }
      ],
      "name": "delegate",
      "outputs": [],
      "payable": false,
      "stateMutability": "nonpayable",
      "type": "function",
      "signature": "0x5c19a95c"
    },
    {
      "constant": false,
      "inputs": [
        {
          "name": "proposal",
          "type": "uint256"
        }
      ],
      "name": "vote",
      "outputs": [],
      "payable": false,
      "stateMutability": "nonpayable",
      "type": "function",
      "signature": "0x0121b93f"
    },
    {
      "constant": true,
      "inputs": [],
      "name": "winningProposal",
      "outputs": [
        {
          "name": "winningProposal_",
          "type": "uint256"
        }
      ],
      "payable": false,
      "stateMutability": "view",
      "type": "function",
      "signature": "0x609ff1bd"
    },
    {
      "constant": true,
      "inputs": [],
      "name": "winnerName",
      "outputs": [
        {
          "name": "winnerName_",
          "type": "bytes32"
        }
      ],
      "payable": false,
      "stateMutability": "view",
      "type": "function",
      "signature": "0xe2ba53f0"
    }
  ],
  "bytecode": "0x60806040526000600e5560405162004ef038038062004ef0833981018060405260a08110156200002e57600080fd5b810190808051906020019092919080516401000000008111156200005157600080fd5b828101905060208101848111156200006857600080fd5b81518560018202830111640100000000821117156200008657600080fd5b50509291906020018051640100000000811115620000a357600080fd5b82810190506020810184811115620000ba57600080fd5b8151856001820283011164010000000082111715620000d857600080fd5b5050929190602001805190602001909291908051640100000000811115620000ff57600080fd5b828101905060208101848111156200011657600080fd5b81518560208202830111640100000000821117156200013457600080fd5b505092919050505083838382828181620001806301ffc9a77c01000000000000000000000000000000000000000000000000000000000262000588640100000000026401000000009004565b620001bd6380ac58cd7c01000000000000000000000000000000000000000000000000000000000262000588640100000000026401000000009004565b620001fa63780e9d637c01000000000000000000000000000000000000000000000000000000000262000588640100000000026401000000009004565b81600990805190602001906200021292919062000646565b5080600a90805190602001906200022b92919062000646565b5062000269635b5e139f7c01000000000000000000000000000000000000000000000000000000000262000588640100000000026401000000009004565b5050505033600c60006101000a81548173ffffffffffffffffffffffffffffffffffffffff021916908373ffffffffffffffffffffffffffffffffffffffff160217905550600c60009054906101000a900473ffffffffffffffffffffffffffffffffffffffff1673ffffffffffffffffffffffffffffffffffffffff16600073ffffffffffffffffffffffffffffffffffffffff167f8be0079c531659141344cd1fd0a4f28419497f9722a3daafe3b4186f6b6457e060405160405180910390a380600d60006101000a81548173ffffffffffffffffffffffffffffffffffffffff021916908373ffffffffffffffffffffffffffffffffffffffff16021790555050505084601260006101000a81548173ffffffffffffffffffffffffffffffffffffffff021916908373ffffffffffffffffffffffffffffffffffffffff160217905550600234811515620003bd57fe5b046011819055503460115460020214151562000441576040517f08c379a00000000000000000000000000000000000000000000000000000000081526004018080602001828103825260158152602001807f56616c75652068617320746f206265206576656e2e000000000000000000000081525060200191505060405180910390fd5b33601560006101000a81548173ffffffffffffffffffffffffffffffffffffffff021916908373ffffffffffffffffffffffffffffffffffffffff160217905550600160166000601560009054906101000a900473ffffffffffffffffffffffffffffffffffffffff1673ffffffffffffffffffffffffffffffffffffffff1673ffffffffffffffffffffffffffffffffffffffff1681526020019081526020016000206000018190555060008090505b81518110156200057c576017604080519081016040528084848151811015156200051857fe5b90602001906020020151815260200160008152509080600181540180825580915050906001820390600052602060002090600202016000909192909190915060008201518160000155602082015181600101555050508080600101915050620004f2565b505050505050620006f5565b63ffffffff7c010000000000000000000000000000000000000000000000000000000002817bffffffffffffffffffffffffffffffffffffffffffffffffffffffff191614151515620005da57600080fd5b6001600080837bffffffffffffffffffffffffffffffffffffffffffffffffffffffff19167bffffffffffffffffffffffffffffffffffffffffffffffffffffffff1916815260200190815260200160002060006101000a81548160ff02191690831515021790555050565b828054600181600116156101000203166002900490600052602060002090601f016020900481019282601f106200068957805160ff1916838001178555620006ba565b82800160010185558215620006ba579182015b82811115620006b95782518255916020019190600101906200069c565b5b509050620006c99190620006cd565b5090565b620006f291905b80821115620006ee576000816000905550600101620006d4565b5090565b90565b6147eb80620007056000396000f3fe608060405260043610610225576000357c0100000000000000000000000000000000000000000000000000000000900463ffffffff1680630121b93f1461022a578063013cf08b1461026557806301ffc9a7146102bb57806306fdde031461032d578063081812fc146103bd57806308551a5314610438578063095ea7b31461048f5780630a276680146104ea57806317d70f7c1461054557806318160ddd1461057057806323b872dd1461059b5780632e4176cf146106165780632f745c591461066d57806335a063b4146106dc5780633ae35156146106f35780633fa4f2451461072257806340c1bfab1461074d57806342842e0e146108425780634f6ccce7146108bd5780635c19a95c1461090c5780635cbfbc891461095d5780635e5e995c14610b10578063609ff1bd14610b835780636352211e14610bae57806370a0823114610c29578063715018a614610c8e5780637150d8ae14610ca557806373fac6f014610cfc578063755edd1714610d135780638da5cb5b14610d645780638f32d59b14610dbb5780638f911b6e14610dea57806395d89b4114610edf5780639e7b8d6114610f6f578063a22cb46514610fc0578063a3ec138d1461101d578063b88d4fde146110c7578063c19d93fb146111d9578063c87b56dd14611212578063d547cfb7146112c6578063d696069714611356578063e2ba53f014611360578063e3d4187f1461138b578063e985e9c5146113fe578063f2fde38b14611487575b600080fd5b34801561023657600080fd5b506102636004803603602081101561024d57600080fd5b81019080803590602001909291905050506114d8565b005b34801561027157600080fd5b5061029e6004803603602081101561028857600080fd5b810190808035906020019092919050505061167b565b604051808381526020018281526020019250505060405180910390f35b3480156102c757600080fd5b50610313600480360360208110156102de57600080fd5b8101908080357bffffffffffffffffffffffffffffffffffffffffffffffffffffffff191690602001909291905050506116ae565b604051808215151515815260200191505060405180910390f35b34801561033957600080fd5b50610342611715565b6040518080602001828103825283818151815260200191508051906020019080838360005b83811015610382578082015181840152602081019050610367565b50505050905090810190601f1680156103af5780820380516001836020036101000a031916815260200191505b509250505060405180910390f35b3480156103c957600080fd5b506103f6600480360360208110156103e057600080fd5b81019080803590602001909291905050506117b7565b604051808273ffffffffffffffffffffffffffffffffffffffff1673ffffffffffffffffffffffffffffffffffffffff16815260200191505060405180910390f35b34801561044457600080fd5b5061044d611808565b604051808273ffffffffffffffffffffffffffffffffffffffff1673ffffffffffffffffffffffffffffffffffffffff16815260200191505060405180910390f35b34801561049b57600080fd5b506104e8600480360360408110156104b257600080fd5b81019080803573ffffffffffffffffffffffffffffffffffffffff1690602001909291908035906020019092919050505061182e565b005b3480156104f657600080fd5b506105436004803603604081101561050d57600080fd5b81019080803573ffffffffffffffffffffffffffffffffffffffff16906020019092919080359060200190929190505050611973565b005b34801561055157600080fd5b5061055a611993565b6040518082815260200191505060405180910390f35b34801561057c57600080fd5b50610585611999565b6040518082815260200191505060405180910390f35b3480156105a757600080fd5b50610614600480360360608110156105be57600080fd5b81019080803573ffffffffffffffffffffffffffffffffffffffff169060200190929190803573ffffffffffffffffffffffffffffffffffffffff169060200190929190803590602001909291905050506119a6565b005b34801561062257600080fd5b5061062b6119cb565b604051808273ffffffffffffffffffffffffffffffffffffffff1673ffffffffffffffffffffffffffffffffffffffff16815260200191505060405180910390f35b34801561067957600080fd5b506106c66004803603604081101561069057600080fd5b81019080803573ffffffffffffffffffffffffffffffffffffffff169060200190929190803590602001909291905050506119f1565b6040518082815260200191505060405180910390f35b3480156106e857600080fd5b506106f1611a68565b005b3480156106ff57600080fd5b50610708611c9e565b604051808215151515815260200191505060405180910390f35b34801561072e57600080fd5b50610737611ca7565b6040518082815260200191505060405180910390f35b34801561075957600080fd5b506107866004803603602081101561077057600080fd5b8101908080359060200190929190505050611cad565b604051808573ffffffffffffffffffffffffffffffffffffffff1673ffffffffffffffffffffffffffffffffffffffff16815260200180602001848152602001838152602001828103825285818151815260200191508051906020019080838360005b838110156108045780820151818401526020810190506107e9565b50505050905090810190601f1680156108315780820380516001836020036101000a031916815260200191505b509550505050505060405180910390f35b34801561084e57600080fd5b506108bb6004803603606081101561086557600080fd5b81019080803573ffffffffffffffffffffffffffffffffffffffff169060200190929190803573ffffffffffffffffffffffffffffffffffffffff16906020019092919080359060200190929190505050611d95565b005b3480156108c957600080fd5b506108f6600480360360208110156108e057600080fd5b8101908080359060200190929190505050611db6565b6040518082815260200191505060405180910390f35b34801561091857600080fd5b5061095b6004803603602081101561092f57600080fd5b81019080803573ffffffffffffffffffffffffffffffffffffffff169060200190929190505050611dee565b005b34801561096957600080fd5b50610a4d6004803603606081101561098057600080fd5b81019080803573ffffffffffffffffffffffffffffffffffffffff169060200190929190803590602001906401000000008111156109bd57600080fd5b8201836020820111156109cf57600080fd5b803590602001918460018302840111640100000000831117156109f157600080fd5b91908080601f016020809104026020016040519081016040528093929190818152602001838380828437600081840152601f19601f82011690508083019250505050505050919291929080359060200190929190505050612214565b604051808673ffffffffffffffffffffffffffffffffffffffff1673ffffffffffffffffffffffffffffffffffffffff16815260200185815260200180602001848152602001838152602001828103825285818151815260200191508051906020019080838360005b83811015610ad1578082015181840152602081019050610ab6565b50505050905090810190601f168015610afe5780820380516001836020036101000a031916815260200191505b50965050505050505060405180910390f35b348015610b1c57600080fd5b50610b6960048036036040811015610b3357600080fd5b81019080803573ffffffffffffffffffffffffffffffffffffffff169060200190929190803590602001909291905050506123bc565b604051808215151515815260200191505060405180910390f35b348015610b8f57600080fd5b50610b986123c8565b6040518082815260200191505060405180910390f35b348015610bba57600080fd5b50610be760048036036020811015610bd157600080fd5b8101908080359060200190929190505050612443565b604051808273ffffffffffffffffffffffffffffffffffffffff1673ffffffffffffffffffffffffffffffffffffffff16815260200191505060405180910390f35b348015610c3557600080fd5b50610c7860048036036020811015610c4c57600080fd5b81019080803573ffffffffffffffffffffffffffffffffffffffff1690602001909291905050506124c1565b6040518082815260200191505060405180910390f35b348015610c9a57600080fd5b50610ca3612545565b005b348015610cb157600080fd5b50610cba612619565b604051808273ffffffffffffffffffffffffffffffffffffffff1673ffffffffffffffffffffffffffffffffffffffff16815260200191505060405180910390f35b348015610d0857600080fd5b50610d1161263f565b005b348015610d1f57600080fd5b50610d6260048036036020811015610d3657600080fd5b81019080803573ffffffffffffffffffffffffffffffffffffffff1690602001909291905050506129af565b005b348015610d7057600080fd5b50610d796129e4565b604051808273ffffffffffffffffffffffffffffffffffffffff1673ffffffffffffffffffffffffffffffffffffffff16815260200191505060405180910390f35b348015610dc757600080fd5b50610dd0612a0e565b604051808215151515815260200191505060405180910390f35b348015610df657600080fd5b50610e2360048036036020811015610e0d57600080fd5b8101908080359060200190929190505050612a66565b604051808573ffffffffffffffffffffffffffffffffffffffff1673ffffffffffffffffffffffffffffffffffffffff16815260200180602001848152602001838152602001828103825285818151815260200191508051906020019080838360005b83811015610ea1578082015181840152602081019050610e86565b50505050905090810190601f168015610ece5780820380516001836020036101000a031916815260200191505b509550505050505060405180910390f35b348015610eeb57600080fd5b50610ef4612be6565b6040518080602001828103825283818151815260200191508051906020019080838360005b83811015610f34578082015181840152602081019050610f19565b50505050905090810190601f168015610f615780820380516001836020036101000a031916815260200191505b509250505060405180910390f35b348015610f7b57600080fd5b50610fbe60048036036020811015610f9257600080fd5b81019080803573ffffffffffffffffffffffffffffffffffffffff169060200190929190505050612c88565b005b348015610fcc57600080fd5b5061101b60048036036040811015610fe357600080fd5b81019080803573ffffffffffffffffffffffffffffffffffffffff169060200190929190803515159060200190929190505050612ed4565b005b34801561102957600080fd5b5061106c6004803603602081101561104057600080fd5b81019080803573ffffffffffffffffffffffffffffffffffffffff169060200190929190505050613010565b60405180858152602001841515151581526020018373ffffffffffffffffffffffffffffffffffffffff1673ffffffffffffffffffffffffffffffffffffffff16815260200182815260200194505050505060405180910390f35b3480156110d357600080fd5b506111d7600480360360808110156110ea57600080fd5b81019080803573ffffffffffffffffffffffffffffffffffffffff169060200190929190803573ffffffffffffffffffffffffffffffffffffffff169060200190929190803590602001909291908035906020019064010000000081111561115157600080fd5b82018360208201111561116357600080fd5b8035906020019184600183028401116401000000008311171561118557600080fd5b91908080601f016020809104026020016040519081016040528093929190818152602001838380828437600081840152601f19601f82011690508083019250505050505050919291929050505061306d565b005b3480156111e557600080fd5b506111ee613095565b604051808260028111156111fe57fe5b60ff16815260200191505060405180910390f35b34801561121e57600080fd5b5061124b6004803603602081101561123557600080fd5b81019080803590602001909291905050506130a8565b6040518080602001828103825283818151815260200191508051906020019080838360005b8381101561128b578082015181840152602081019050611270565b50505050905090810190601f1680156112b85780820380516001836020036101000a031916815260200191505b509250505060405180910390f35b3480156112d257600080fd5b506112db6130ca565b6040518080602001828103825283818151815260200191508051906020019080838360005b8381101561131b578082015181840152602081019050611300565b50505050905090810190601f1680156113485780820380516001836020036101000a031916815260200191505b509250505060405180910390f35b61135e613107565b005b34801561136c57600080fd5b5061137561324e565b6040518082815260200191505060405180910390f35b34801561139757600080fd5b506113e4600480360360408110156113ae57600080fd5b81019080803573ffffffffffffffffffffffffffffffffffffffff1690602001909291908035906020019092919050505061327d565b604051808215151515815260200191505060405180910390f35b34801561140a57600080fd5b5061146d6004803603604081101561142157600080fd5b81019080803573ffffffffffffffffffffffffffffffffffffffff169060200190929190803573ffffffffffffffffffffffffffffffffffffffff169060200190929190505050613289565b604051808215151515815260200191505060405180910390f35b34801561149357600080fd5b506114d6600480360360208110156114aa57600080fd5b81019080803573ffffffffffffffffffffffffffffffffffffffff1690602001909291905050506133d6565b005b6000601660003373ffffffffffffffffffffffffffffffffffffffff1673ffffffffffffffffffffffffffffffffffffffff16815260200190815260200160002090506000816000015414151515611598576040517f08c379a00000000000000000000000000000000000000000000000000000000081526004018080602001828103825260148152602001807f486173206e6f20726967687420746f20766f746500000000000000000000000081525060200191505060405180910390fd5b8060010160009054906101000a900460ff1615151561161f576040517f08c379a000000000000000000000000000000000000000000000000000000000815260040180806020018281038252600e8152602001807f416c726561647920766f7465642e00000000000000000000000000000000000081525060200191505060405180910390fd5b60018160010160006101000a81548160ff021916908315150217905550818160020181905550806000015460178381548110151561165957fe5b9060005260206000209060020201600101600082825401925050819055505050565b60178181548110151561168a57fe5b90600052602060002090600202016000915090508060000154908060010154905082565b6000806000837bffffffffffffffffffffffffffffffffffffffffffffffffffffffff19167bffffffffffffffffffffffffffffffffffffffffffffffffffffffff1916815260200190815260200160002060009054906101000a900460ff169050919050565b606060098054600181600116156101000203166002900480601f0160208091040260200160405190810160405280929190818152602001828054600181600116156101000203166002900480156117ad5780601f10611782576101008083540402835291602001916117ad565b820191906000526020600020905b81548152906001019060200180831161179057829003601f168201915b5050505050905090565b60006117c2826133f5565b15156117cd57600080fd5b6002600083815260200190815260200160002060009054906101000a900473ffffffffffffffffffffffffffffffffffffffff169050919050565b601260009054906101000a900473ffffffffffffffffffffffffffffffffffffffff1681565b600061183982612443565b90508073ffffffffffffffffffffffffffffffffffffffff168373ffffffffffffffffffffffffffffffffffffffff161415151561187657600080fd5b8073ffffffffffffffffffffffffffffffffffffffff163373ffffffffffffffffffffffffffffffffffffffff1614806118b657506118b58133613289565b5b15156118c157600080fd5b826002600084815260200190815260200160002060006101000a81548173ffffffffffffffffffffffffffffffffffffffff021916908373ffffffffffffffffffffffffffffffffffffffff160217905550818373ffffffffffffffffffffffffffffffffffffffff168273ffffffffffffffffffffffffffffffffffffffff167f8c5be1e5ebec7d5bd14f71427d1e84f3dd0314c0f7b2291e5b200ac8c7c3b92560405160405180910390a4505050565b61197b612a0e565b151561198657600080fd5b61198f82613467565b5050565b600f5481565b6000600780549050905090565b6119b03382613563565b15156119bb57600080fd5b6119c68383836135f8565b505050565b601560009054906101000a900473ffffffffffffffffffffffffffffffffffffffff1681565b60006119fc836124c1565b82101515611a0957600080fd5b600560008473ffffffffffffffffffffffffffffffffffffffff1673ffffffffffffffffffffffffffffffffffffffff16815260200190815260200160002082815481101515611a5557fe5b9060005260206000200154905092915050565b601260009054906101000a900473ffffffffffffffffffffffffffffffffffffffff1673ffffffffffffffffffffffffffffffffffffffff163373ffffffffffffffffffffffffffffffffffffffff16141515611b2d576040517f08c379a000000000000000000000000000000000000000000000000000000000815260040180806020018281038252601a8152602001807f4f6e6c792073656c6c65722063616e2063616c6c20746869732e00000000000081525060200191505060405180910390fd5b6000806002811115611b3b57fe5b601360149054906101000a900460ff166002811115611b5657fe5b141515611bcb576040517f08c379a000000000000000000000000000000000000000000000000000000000815260040180806020018281038252600e8152602001807f496e76616c69642073746174652e00000000000000000000000000000000000081525060200191505060405180910390fd5b7f72c874aeff0b183a56e2b79c71b46e1aed4dee5e09862134b8821ba2fddbf8bf60405160405180910390a16002601360146101000a81548160ff02191690836002811115611c1657fe5b0217905550601260009054906101000a900473ffffffffffffffffffffffffffffffffffffffff1673ffffffffffffffffffffffffffffffffffffffff166108fc3073ffffffffffffffffffffffffffffffffffffffff16319081150290604051600060405180830381858888f19350505050158015611c9a573d6000803e3d6000fd5b5050565b60006001905090565b60115481565b60106020528060005260406000206000915090508060000160009054906101000a900473ffffffffffffffffffffffffffffffffffffffff1690806001018054600181600116156101000203166002900480601f016020809104026020016040519081016040528092919081815260200182805460018160011615610100020316600290048015611d7f5780601f10611d5457610100808354040283529160200191611d7f565b820191906000526020600020905b815481529060010190602001808311611d6257829003601f168201915b5050505050908060020154908060030154905084565b611db1838383602060405190810160405280600081525061306d565b505050565b6000611dc0611999565b82101515611dcd57600080fd5b600782815481101515611ddc57fe5b90600052602060002001549050919050565b6000601660003373ffffffffffffffffffffffffffffffffffffffff1673ffffffffffffffffffffffffffffffffffffffff16815260200190815260200160002090508060010160009054906101000a900460ff16151515611eb8576040517f08c379a00000000000000000000000000000000000000000000000000000000081526004018080602001828103825260128152602001807f596f7520616c726561647920766f7465642e000000000000000000000000000081525060200191505060405180910390fd5b3373ffffffffffffffffffffffffffffffffffffffff168273ffffffffffffffffffffffffffffffffffffffff1614151515611f5c576040517f08c379a000000000000000000000000000000000000000000000000000000000815260040180806020018281038252601e8152602001807f53656c662d64656c65676174696f6e20697320646973616c6c6f7765642e000081525060200191505060405180910390fd5b5b600073ffffffffffffffffffffffffffffffffffffffff16601660008473ffffffffffffffffffffffffffffffffffffffff1673ffffffffffffffffffffffffffffffffffffffff16815260200190815260200160002060010160019054906101000a900473ffffffffffffffffffffffffffffffffffffffff1673ffffffffffffffffffffffffffffffffffffffff1614151561210357601660008373ffffffffffffffffffffffffffffffffffffffff1673ffffffffffffffffffffffffffffffffffffffff16815260200190815260200160002060010160019054906101000a900473ffffffffffffffffffffffffffffffffffffffff1691503373ffffffffffffffffffffffffffffffffffffffff168273ffffffffffffffffffffffffffffffffffffffff16141515156120fe576040517f08c379a00000000000000000000000000000000000000000000000000000000081526004018080602001828103825260198152602001807f466f756e64206c6f6f7020696e2064656c65676174696f6e2e0000000000000081525060200191505060405180910390fd5b611f5d565b60018160010160006101000a81548160ff021916908315150217905550818160010160016101000a81548173ffffffffffffffffffffffffffffffffffffffff021916908373ffffffffffffffffffffffffffffffffffffffff1602179055506000601660008473ffffffffffffffffffffffffffffffffffffffff1673ffffffffffffffffffffffffffffffffffffffff16815260200190815260200160002090508060010160009054906101000a900460ff16156121f8578160000154601782600201548154811015156121d557fe5b90600052602060002090600202016001016000828254019250508190555061220f565b816000015481600001600082825401925050819055505b505050565b6000806060600080600060106000600f5481526020019081526020016000209050888160000160006101000a81548173ffffffffffffffffffffffffffffffffffffffff021916908373ffffffffffffffffffffffffffffffffffffffff160217905550878160010190805190602001906122909291906146af565b50428160020181905550868160030181905550600f600081548092919060010191905055507f4331cc443ebc4ea0b8056bfcfb104a0ca6d036604cb530d94d3c48041a966fcf89600f548a428b604051808673ffffffffffffffffffffffffffffffffffffffff1673ffffffffffffffffffffffffffffffffffffffff16815260200185815260200180602001848152602001838152602001828103825285818151815260200191508051906020019080838360005b83811015612361578082015181840152602081019050612346565b50505050905090810190601f16801561238e5780820380516001836020036101000a031916815260200191505b50965050505050505060405180910390a188600f5489428a9550955095509550955050939792965093509350565b60006001905092915050565b6000806000905060008090505b60178054905081101561243e57816017828154811015156123f257fe5b90600052602060002090600202016001015411156124315760178181548110151561241957fe5b90600052602060002090600202016001015491508092505b80806001019150506123d5565b505090565b6000806001600084815260200190815260200160002060009054906101000a900473ffffffffffffffffffffffffffffffffffffffff169050600073ffffffffffffffffffffffffffffffffffffffff168173ffffffffffffffffffffffffffffffffffffffff16141515156124b857600080fd5b80915050919050565b60008073ffffffffffffffffffffffffffffffffffffffff168273ffffffffffffffffffffffffffffffffffffffff16141515156124fe57600080fd5b600360008373ffffffffffffffffffffffffffffffffffffffff1673ffffffffffffffffffffffffffffffffffffffff168152602001908152602001600020549050919050565b61254d612a0e565b151561255857600080fd5b600073ffffffffffffffffffffffffffffffffffffffff16600c60009054906101000a900473ffffffffffffffffffffffffffffffffffffffff1673ffffffffffffffffffffffffffffffffffffffff167f8be0079c531659141344cd1fd0a4f28419497f9722a3daafe3b4186f6b6457e060405160405180910390a36000600c60006101000a81548173ffffffffffffffffffffffffffffffffffffffff021916908373ffffffffffffffffffffffffffffffffffffffff160217905550565b601360009054906101000a900473ffffffffffffffffffffffffffffffffffffffff1681565b601360009054906101000a900473ffffffffffffffffffffffffffffffffffffffff1673ffffffffffffffffffffffffffffffffffffffff163373ffffffffffffffffffffffffffffffffffffffff16141515612704576040517f08c379a00000000000000000000000000000000000000000000000000000000081526004018080602001828103825260198152602001807f4f6e6c792062757965722063616e2063616c6c20746869732e0000000000000081525060200191505060405180910390fd5b600180600281111561271257fe5b601360149054906101000a900460ff16600281111561272d57fe5b1415156127a2576040517f08c379a000000000000000000000000000000000000000000000000000000000815260040180806020018281038252600e8152602001807f496e76616c69642073746174652e00000000000000000000000000000000000081525060200191505060405180910390fd5b7fe89152acd703c9d8c7d28829d443260b411454d45394e7995815140c8cbcbcf760405160405180910390a16002601360146101000a81548160ff021916908360028111156127ed57fe5b0217905550601360009054906101000a900473ffffffffffffffffffffffffffffffffffffffff1673ffffffffffffffffffffffffffffffffffffffff166108fc6011549081150290604051600060405180830381858888f1935050505015801561285c573d6000803e3d6000fd5b50601260009054906101000a900473ffffffffffffffffffffffffffffffffffffffff1673ffffffffffffffffffffffffffffffffffffffff166108fc3073ffffffffffffffffffffffffffffffffffffffff16319081150290604051600060405180830381858888f193505050501580156128dc573d6000803e3d6000fd5b5061290b601360009054906101000a900473ffffffffffffffffffffffffffffffffffffffff16600f54611973565b600f54601360009054906101000a900473ffffffffffffffffffffffffffffffffffffffff1673ffffffffffffffffffffffffffffffffffffffff16601260009054906101000a900473ffffffffffffffffffffffffffffffffffffffff1673ffffffffffffffffffffffffffffffffffffffff167fc13a1166d81cd3b0b352a367aebab95f3a6f6bc695fdab8e9a9d335239c3861b60405160405180910390a450565b6129b7612a0e565b15156129c257600080fd5b60006129cc61361c565b90506129d88282613639565b6129e061365a565b5050565b6000600c60009054906101000a900473ffffffffffffffffffffffffffffffffffffffff16905090565b6000600c60009054906101000a900473ffffffffffffffffffffffffffffffffffffffff1673ffffffffffffffffffffffffffffffffffffffff163373ffffffffffffffffffffffffffffffffffffffff1614905090565b60006060600080600060018603905060006060600080612a8461472f565b60106000878152602001908152602001600020608060405190810160405290816000820160009054906101000a900473ffffffffffffffffffffffffffffffffffffffff1673ffffffffffffffffffffffffffffffffffffffff1673ffffffffffffffffffffffffffffffffffffffff168152602001600182018054600181600116156101000203166002900480601f016020809104026020016040519081016040528092919081815260200182805460018160011615610100020316600290048015612b925780601f10612b6757610100808354040283529160200191612b92565b820191906000526020600020905b815481529060010190602001808311612b7557829003601f168201915b50505050508152602001600282015481526020016003820154815250509050806000015194508060200151935080604001519250806060015191508484848499509950995099505050505050509193509193565b6060600a8054600181600116156101000203166002900480601f016020809104026020016040519081016040528092919081815260200182805460018160011615610100020316600290048015612c7e5780601f10612c5357610100808354040283529160200191612c7e565b820191906000526020600020905b815481529060010190602001808311612c6157829003601f168201915b5050505050905090565b601560009054906101000a900473ffffffffffffffffffffffffffffffffffffffff1673ffffffffffffffffffffffffffffffffffffffff163373ffffffffffffffffffffffffffffffffffffffff16141515612d73576040517f08c379a00000000000000000000000000000000000000000000000000000000081526004018080602001828103825260288152602001807f4f6e6c79206368616972706572736f6e2063616e20676976652072696768742081526020017f746f20766f74652e00000000000000000000000000000000000000000000000081525060400191505060405180910390fd5b601660008273ffffffffffffffffffffffffffffffffffffffff1673ffffffffffffffffffffffffffffffffffffffff16815260200190815260200160002060010160009054906101000a900460ff16151515612e38576040517f08c379a00000000000000000000000000000000000000000000000000000000081526004018080602001828103825260188152602001807f54686520766f74657220616c726561647920766f7465642e000000000000000081525060200191505060405180910390fd5b6000601660008373ffffffffffffffffffffffffffffffffffffffff1673ffffffffffffffffffffffffffffffffffffffff16815260200190815260200160002060000154141515612e8957600080fd5b6001601660008373ffffffffffffffffffffffffffffffffffffffff1673ffffffffffffffffffffffffffffffffffffffff1681526020019081526020016000206000018190555050565b3373ffffffffffffffffffffffffffffffffffffffff168273ffffffffffffffffffffffffffffffffffffffff1614151515612f0f57600080fd5b80600460003373ffffffffffffffffffffffffffffffffffffffff1673ffffffffffffffffffffffffffffffffffffffff16815260200190815260200160002060008473ffffffffffffffffffffffffffffffffffffffff1673ffffffffffffffffffffffffffffffffffffffff16815260200190815260200160002060006101000a81548160ff0219169083151502179055508173ffffffffffffffffffffffffffffffffffffffff163373ffffffffffffffffffffffffffffffffffffffff167f17307eab39ab6107e8899845ad3d59bd9653f200f220920489ca2b5937696c3183604051808215151515815260200191505060405180910390a35050565b60166020528060005260406000206000915090508060000154908060010160009054906101000a900460ff16908060010160019054906101000a900473ffffffffffffffffffffffffffffffffffffffff16908060020154905084565b6130788484846119a6565b6130848484848461366e565b151561308f57600080fd5b50505050565b601360149054906101000a900460ff1681565b60606130c36130b56130ca565b6130be84613891565b6139ea565b9050919050565b60606040805190810160405280601f81526020017f687474703a2f2f6c6f63616c686f73743a333030302f65786368616e67652f00815250905090565b600080600281111561311557fe5b601360149054906101000a900460ff16600281111561313057fe5b1415156131a5576040517f08c379a000000000000000000000000000000000000000000000000000000000815260040180806020018281038252600e8152602001807f496e76616c69642073746174652e00000000000000000000000000000000000081525060200191505060405180910390fd5b60115460020234148015156131b957600080fd5b7fd5d55c8a68912e9a110618df8d5e2e83b8d83211c57a8ddd1203df92885dc88160405160405180910390a133601360006101000a81548173ffffffffffffffffffffffffffffffffffffffff021916908373ffffffffffffffffffffffffffffffffffffffff1602179055506001601360146101000a81548160ff0219169083600281111561324557fe5b02179055505050565b6000601761325a6123c8565b81548110151561326657fe5b906000526020600020906002020160000154905090565b60006001905092915050565b600080600d60009054906101000a900473ffffffffffffffffffffffffffffffffffffffff1690508273ffffffffffffffffffffffffffffffffffffffff168173ffffffffffffffffffffffffffffffffffffffff1663c4552791866040518263ffffffff167c0100000000000000000000000000000000000000000000000000000000028152600401808273ffffffffffffffffffffffffffffffffffffffff1673ffffffffffffffffffffffffffffffffffffffff16815260200191505060206040518083038186803b15801561336157600080fd5b505afa158015613375573d6000803e3d6000fd5b505050506040513d602081101561338b57600080fd5b810190808051906020019092919050505073ffffffffffffffffffffffffffffffffffffffff1614156133c25760019150506133d0565b6133cc8484613a31565b9150505b92915050565b6133de612a0e565b15156133e957600080fd5b6133f281613467565b50565b6000806001600084815260200190815260200160002060009054906101000a900473ffffffffffffffffffffffffffffffffffffffff169050600073ffffffffffffffffffffffffffffffffffffffff168173ffffffffffffffffffffffffffffffffffffffff161415915050919050565b600073ffffffffffffffffffffffffffffffffffffffff168173ffffffffffffffffffffffffffffffffffffffff16141515156134a357600080fd5b8073ffffffffffffffffffffffffffffffffffffffff16600c60009054906101000a900473ffffffffffffffffffffffffffffffffffffffff1673ffffffffffffffffffffffffffffffffffffffff167f8be0079c531659141344cd1fd0a4f28419497f9722a3daafe3b4186f6b6457e060405160405180910390a380600c60006101000a81548173ffffffffffffffffffffffffffffffffffffffff021916908373ffffffffffffffffffffffffffffffffffffffff16021790555050565b60008061356f83612443565b90508073ffffffffffffffffffffffffffffffffffffffff168473ffffffffffffffffffffffffffffffffffffffff1614806135de57508373ffffffffffffffffffffffffffffffffffffffff166135c6846117b7565b73ffffffffffffffffffffffffffffffffffffffff16145b806135ef57506135ee8185613289565b5b91505092915050565b613603838383613ac5565b61360d8382613d2a565b6136178282613ece565b505050565b60006136346001600e54613f9590919063ffffffff16565b905090565b6136438282613fb6565b61364d8282613ece565b6136568161414f565b5050565b600e60008154809291906001019190505550565b600061368f8473ffffffffffffffffffffffffffffffffffffffff1661419b565b151561369e5760019050613889565b60008473ffffffffffffffffffffffffffffffffffffffff1663150b7a02338887876040518563ffffffff167c0100000000000000000000000000000000000000000000000000000000028152600401808573ffffffffffffffffffffffffffffffffffffffff1673ffffffffffffffffffffffffffffffffffffffff1681526020018473ffffffffffffffffffffffffffffffffffffffff1673ffffffffffffffffffffffffffffffffffffffff16815260200183815260200180602001828103825283818151815260200191508051906020019080838360005b8381101561379557808201518184015260208101905061377a565b50505050905090810190601f1680156137c25780820380516001836020036101000a031916815260200191505b5095505050505050602060405180830381600087803b1580156137e457600080fd5b505af11580156137f8573d6000803e3d6000fd5b505050506040513d602081101561380e57600080fd5b8101908080519060200190929190505050905063150b7a027c0100000000000000000000000000000000000000000000000000000000027bffffffffffffffffffffffffffffffffffffffffffffffffffffffff1916817bffffffffffffffffffffffffffffffffffffffffffffffffffffffff1916149150505b949350505050565b606060008214156138d9576040805190810160405280600181526020017f300000000000000000000000000000000000000000000000000000000000000081525090506139e5565b600082905060005b600082141515613907578080600101915050600a828115156138ff57fe5b0491506138e1565b6060816040519080825280601f01601f19166020018201604052801561393c5781602001600182028038833980820191505090505b50905060006001830390505b6000861415156139dd57600a8681151561395e57fe5b066030017f01000000000000000000000000000000000000000000000000000000000000000282828060019003935081518110151561399957fe5b9060200101907effffffffffffffffffffffffffffffffffffffffffffffffffffffffffffff1916908160001a905350600a868115156139d557fe5b049550613948565b819450505050505b919050565b6060613a2983836020604051908101604052806000815250602060405190810160405280600081525060206040519081016040528060008152506141ae565b905092915050565b6000600460008473ffffffffffffffffffffffffffffffffffffffff1673ffffffffffffffffffffffffffffffffffffffff16815260200190815260200160002060008373ffffffffffffffffffffffffffffffffffffffff1673ffffffffffffffffffffffffffffffffffffffff16815260200190815260200160002060009054906101000a900460ff16905092915050565b8273ffffffffffffffffffffffffffffffffffffffff16613ae582612443565b73ffffffffffffffffffffffffffffffffffffffff16141515613b0757600080fd5b600073ffffffffffffffffffffffffffffffffffffffff168273ffffffffffffffffffffffffffffffffffffffff1614151515613b4357600080fd5b613b4c816145cd565b613b9f6001600360008673ffffffffffffffffffffffffffffffffffffffff1673ffffffffffffffffffffffffffffffffffffffff1681526020019081526020016000205461468d90919063ffffffff16565b600360008573ffffffffffffffffffffffffffffffffffffffff1673ffffffffffffffffffffffffffffffffffffffff16815260200190815260200160002081905550613c356001600360008573ffffffffffffffffffffffffffffffffffffffff1673ffffffffffffffffffffffffffffffffffffffff16815260200190815260200160002054613f9590919063ffffffff16565b600360008473ffffffffffffffffffffffffffffffffffffffff1673ffffffffffffffffffffffffffffffffffffffff16815260200190815260200160002081905550816001600083815260200190815260200160002060006101000a81548173ffffffffffffffffffffffffffffffffffffffff021916908373ffffffffffffffffffffffffffffffffffffffff160217905550808273ffffffffffffffffffffffffffffffffffffffff168473ffffffffffffffffffffffffffffffffffffffff167fddf252ad1be2c89b69c2b068fc378daa952ba7f163c4a11628f55a4df523b3ef60405160405180910390a4505050565b6000613d826001600560008673ffffffffffffffffffffffffffffffffffffffff1673ffffffffffffffffffffffffffffffffffffffff1681526020019081526020016000208054905061468d90919063ffffffff16565b90506000600660008481526020019081526020016000205490508181141515613e75576000600560008673ffffffffffffffffffffffffffffffffffffffff1673ffffffffffffffffffffffffffffffffffffffff16815260200190815260200160002083815481101515613df357fe5b9060005260206000200154905080600560008773ffffffffffffffffffffffffffffffffffffffff1673ffffffffffffffffffffffffffffffffffffffff16815260200190815260200160002083815481101515613e4d57fe5b9060005260206000200181905550816006600083815260200190815260200160002081905550505b600560008573ffffffffffffffffffffffffffffffffffffffff1673ffffffffffffffffffffffffffffffffffffffff168152602001908152602001600020805480919060019003613ec7919061476e565b5050505050565b600560008373ffffffffffffffffffffffffffffffffffffffff1673ffffffffffffffffffffffffffffffffffffffff168152602001908152602001600020805490506006600083815260200190815260200160002081905550600560008373ffffffffffffffffffffffffffffffffffffffff1673ffffffffffffffffffffffffffffffffffffffff1681526020019081526020016000208190806001815401808255809150509060018203906000526020600020016000909192909190915055505050565b6000808284019050838110151515613fac57600080fd5b8091505092915050565b600073ffffffffffffffffffffffffffffffffffffffff168273ffffffffffffffffffffffffffffffffffffffff1614151515613ff257600080fd5b613ffb816133f5565b15151561400757600080fd5b816001600083815260200190815260200160002060006101000a81548173ffffffffffffffffffffffffffffffffffffffff021916908373ffffffffffffffffffffffffffffffffffffffff1602179055506140ac6001600360008573ffffffffffffffffffffffffffffffffffffffff1673ffffffffffffffffffffffffffffffffffffffff16815260200190815260200160002054613f9590919063ffffffff16565b600360008473ffffffffffffffffffffffffffffffffffffffff1673ffffffffffffffffffffffffffffffffffffffff16815260200190815260200160002081905550808273ffffffffffffffffffffffffffffffffffffffff16600073ffffffffffffffffffffffffffffffffffffffff167fddf252ad1be2c89b69c2b068fc378daa952ba7f163c4a11628f55a4df523b3ef60405160405180910390a45050565b6007805490506008600083815260200190815260200160002081905550600781908060018154018082558091505090600182039060005260206000200160009091929091909150555050565b600080823b905060008111915050919050565b6060808690506060869050606086905060608690506060869050606081518351855187518951010101016040519080825280601f01601f19166020018201604052801561420a5781602001600182028038833980820191505090505b5090506060819050600080905060008090505b88518110156142d057888181518110151561423457fe5b9060200101517f010000000000000000000000000000000000000000000000000000000000000090047f010000000000000000000000000000000000000000000000000000000000000002838380600101945081518110151561429357fe5b9060200101907effffffffffffffffffffffffffffffffffffffffffffffffffffffffffffff1916908160001a905350808060010191505061421d565b5060008090505b875181101561438a5787818151811015156142ee57fe5b9060200101517f010000000000000000000000000000000000000000000000000000000000000090047f010000000000000000000000000000000000000000000000000000000000000002838380600101945081518110151561434d57fe5b9060200101907effffffffffffffffffffffffffffffffffffffffffffffffffffffffffffff1916908160001a90535080806001019150506142d7565b5060008090505b86518110156144445786818151811015156143a857fe5b9060200101517f010000000000000000000000000000000000000000000000000000000000000090047f010000000000000000000000000000000000000000000000000000000000000002838380600101945081518110151561440757fe5b9060200101907effffffffffffffffffffffffffffffffffffffffffffffffffffffffffffff1916908160001a9053508080600101915050614391565b5060008090505b85518110156144fe57858181518110151561446257fe5b9060200101517f010000000000000000000000000000000000000000000000000000000000000090047f01000000000000000000000000000000000000000000000000000000000000000283838060010194508151811015156144c157fe5b9060200101907effffffffffffffffffffffffffffffffffffffffffffffffffffffffffffff1916908160001a905350808060010191505061444b565b5060008090505b84518110156145b857848181518110151561451c57fe5b9060200101517f010000000000000000000000000000000000000000000000000000000000000090047f010000000000000000000000000000000000000000000000000000000000000002838380600101945081518110151561457b57fe5b9060200101907effffffffffffffffffffffffffffffffffffffffffffffffffffffffffffff1916908160001a9053508080600101915050614505565b50819850505050505050505095945050505050565b600073ffffffffffffffffffffffffffffffffffffffff166002600083815260200190815260200160002060009054906101000a900473ffffffffffffffffffffffffffffffffffffffff1673ffffffffffffffffffffffffffffffffffffffff1614151561468a5760006002600083815260200190815260200160002060006101000a81548173ffffffffffffffffffffffffffffffffffffffff021916908373ffffffffffffffffffffffffffffffffffffffff1602179055505b50565b600082821115151561469e57600080fd5b600082840390508091505092915050565b828054600181600116156101000203166002900490600052602060002090601f016020900481019282601f106146f057805160ff191683800117855561471e565b8280016001018555821561471e579182015b8281111561471d578251825591602001919060010190614702565b5b50905061472b919061479a565b5090565b608060405190810160405280600073ffffffffffffffffffffffffffffffffffffffff1681526020016060815260200160008152602001600081525090565b81548183558181111561479557818360005260206000209182019101614794919061479a565b5b505050565b6147bc91905b808211156147b85760008160009055506001016147a0565b5090565b9056fea165627a7a723058205fb346c14a7cdca354649685e4751b7532cddc2d167a0375698841a51cb0eb830029",
  "source": "pragma solidity ^0.5.0;\n\n//import \"./Asset.sol\";  // Import Non Fungible TokenERC721 Token\nimport './TradeERC721Token.sol';\nimport '../openzeppelin-solidity/contracts/ownership/Ownable.sol';\n\n\n\n/**\n * The Exchange contract does this and that buy and sell\n */\ncontract Exchange is Ownable, TradeERC721Token {\n\n    uint public tokenId;  // ID of ERC721 Token\n\n    struct EnergyPower {\n        address ownerAddr;\n        string energyType;\n        uint timestamp;\n        uint price;\n    }\n    mapping(uint => EnergyPower) public powers;  // Success\n    //EnergyPower[] public powers;               // Fail\n    \n\n\n    /////////////// ------------------------- [Original] Buy / Sell and Listing -----------------------------------\n    event ListingRegister(address ownerAddr, uint256 tokenId, string energyType, uint256 timestamp, uint256 price);\n\n    function listingRegister(\n        address _ownerAddr,\n        string memory _energyType,\n        uint256 _price\n    ) public returns (\n        address,\n        uint256,\n        string memory,\n        uint256,\n        uint256\n    )\n    {\n        //uint256 _tokenId;\n\n        EnergyPower storage power = powers[tokenId];\n        power.ownerAddr = _ownerAddr;\n        power.energyType = _energyType;\n        power.timestamp = block.timestamp;\n        power.price = _price;\n\n        //_tokenId = tokenId;  // Increase NFT token's ID every time to register@notice: count of tokenId start from 1\n        tokenId++;\n\n        //emit ListingRegister(_ownerAddr, _tokenId, _energyType, block.timestamp, _price);   // [Log]: Successful\n        emit ListingRegister(_ownerAddr, tokenId, _energyType, block.timestamp, _price);  // [Log]: Successful\n\n        //return (_ownerAddr, _tokenId, _energyType, block.timestamp, _price);\n        return (_ownerAddr, tokenId, _energyType, block.timestamp, _price);\n    }\n\n\n    function listingIndex() public returns (bool) {\n        return true;\n        //return powers.length;\n    }\n\n\n    function listingDetail(uint256 tokenId) public view returns (address, string memory, uint256, uint256) {\n        uint256 _tokenId;\n        _tokenId = tokenId - 1;  // Because index number of list start from 0. Therefore, minus 1 add to tokenId.\n\n        address _ownerAddr;\n        string memory _energyType;\n        uint256 _blockTimestamp;\n        uint256 _price;\n\n        EnergyPower memory power = powers[_tokenId];\n        //EnergyPower memory power = powers[tokenId];\n        _ownerAddr = power.ownerAddr;\n        _energyType = power.energyType;\n        _blockTimestamp = power.timestamp;\n        _price = power.price;\n\n        return (_ownerAddr, _energyType, _blockTimestamp, _price);\n    }\n    \n    \n\n\n\n    function Buy (address owner, uint256 tokenId) public returns (bool) {\n        // in progress\n        return true;\n\n        // Todo: Users can buy any type of energy by any token by using kyber widgets \n    }\n\n\n    function Sell (address owner, uint256 tokenId) public returns (bool) {\n        // in progress\n        return true;\n    }\n\n\n\n    /////////// ---------- Buy/Sell ------------------------------------------------- \n\n    uint public value;\n    address payable public seller;\n    address payable public buyer;\n\n    enum State { \n        Created, \n        Locked, \n        Inactive \n    }\n    State public state;\n\n    // Ensure that `msg.value` is an even number.\n    // Division will truncate if it is an odd number.\n    // Check via multiplication that it wasn't an odd number.\n    constructor(\n        address payable _seller, \n        string memory _name, \n        string memory _symbol,\n        //uint _tokenId,  // count of tokenId start from 1\n        address _proxyRegistryAddress,\n        bytes32[] memory proposalNames\n    ) \n        TradeERC721Token(_name, _symbol, _proxyRegistryAddress) \n        public \n        payable \n    {\n        seller = _seller;\n        //seller = msg.sender;\n        value = msg.value / 2;\n        require((2 * value) == msg.value, \"Value has to be even.\");\n\n        //tokenId = _tokenId;   // count of tokenId start from 1\n\n\n        // [For test_:Create a new ballot to choose one of `proposalNames`.\n        chairperson = msg.sender;\n        voters[chairperson].weight = 1;\n\n        // For each of the provided proposal names,\n        // create a new proposal object and add it\n        // to the end of the array.\n        for (uint i = 0; i < proposalNames.length; i++) {\n            // `Proposal({...})` creates a temporary\n            // Proposal object and `proposals.push(...)`\n            // appends it to the end of `proposals`.\n            proposals.push(Proposal({\n                name: proposalNames[i],\n                voteCount: 0\n            }));\n        }\n    }\n\n\n\n    modifier condition(bool _condition) {\n        require(_condition);\n        _;\n    }\n\n    modifier onlyBuyer() {\n        require(\n            msg.sender == buyer,\n            \"Only buyer can call this.\"\n        );\n        _;\n    }\n\n    modifier onlySeller() {\n        require(\n            msg.sender == seller,\n            \"Only seller can call this.\"\n        );\n        _;\n    }\n\n    modifier inState(State _state) {\n        require(\n            state == _state,\n            \"Invalid state.\"\n        );\n        _;\n    }\n\n    event Aborted();\n    event PurchaseConfirmed();\n    event ItemReceived();\n\n    /// Abort the purchase and reclaim the ether.\n    /// Can only be called by the seller before\n    /// the contract is locked.\n    function abort()\n        public\n        onlySeller\n        inState(State.Created)\n    {\n        emit Aborted();\n        state = State.Inactive;\n        seller.transfer(address(this).balance);\n    }\n\n    /// Confirm the purchase as buyer.\n    /// Transaction has to include `2 * value` ether.\n    /// The ether will be locked until confirmReceived\n    /// is called.\n    function confirmPurchase()\n        public\n        inState(State.Created)\n        condition(msg.value == (2 * value))\n        payable\n    {\n        emit PurchaseConfirmed();\n        buyer = msg.sender;\n        state = State.Locked;\n    }\n\n    /// Confirm that you (the buyer) received the item.\n    /// This will release the locked ether.\n    function confirmReceived()\n        public\n        onlyBuyer\n        inState(State.Locked)\n    {\n        emit ItemReceived();\n        // It is important to change the state first because\n        // otherwise, the contracts called using `send` below\n        // can call in again here.\n        state = State.Inactive;\n\n        // NOTE: This actually allows both the buyer and the seller to\n        // block the refund - the withdraw pattern should be used.\n\n        buyer.transfer(value);\n        seller.transfer(address(this).balance);\n\n        ///// Transfer Ownership \n        transferOwnership(buyer, tokenId);\n        emit OwnershipTransferred(seller, buyer, tokenId);\n    }\n\n\n    /////////////// ------------------------- Override Ownable.sol of openzeppelin-solidity -----------------------------------\n    address private _owner;\n    event OwnershipTransferred(address indexed previousOwner, address indexed newOwner, uint256 indexed tokenId);\n\n    /**\n     * @dev Allows the current owner to transfer control of the contract to a newOwner.\n     * @param newOwner The address to transfer ownership to.\n     */\n    function transferOwnership(address newOwner, uint256 tokenId) public onlyOwner {\n        _transferOwnership(newOwner);\n    }\n\n    /**\n     * @dev Transfers control of the contract to a newOwner.\n     * @param newOwner The address to transfer ownership to.\n     */\n    function _transferOwnership(address newOwner, uint256 tokenId) internal {\n        require(newOwner != address(0));\n\n        _owner = seller;\n        //_owner = msg.sender;\n        //_owner = newOwner;\n        emit OwnershipTransferred(_owner, newOwner, tokenId);\n    }\n\n\n\n    ////////////////--------------------- Text of storage which reference from solidity document v0.5.0 -------------------------------------------------------------------------\n    struct Voter {\n        uint weight; // weight is accumulated by delegation\n        bool voted;  // if true, that person already voted\n        address delegate; // person delegated to\n        uint vote;   // index of the voted proposal\n    }\n\n    // This is a type for a single proposal.\n    struct Proposal {\n        bytes32 name;   // short name (up to 32 bytes)\n        uint voteCount; // number of accumulated votes\n    }\n\n    address public chairperson;\n\n    // This declares a state variable that\n    // stores a `Voter` struct for each possible address.\n    mapping(address => Voter) public voters;\n\n    // A dynamically-sized array of `Proposal` structs.\n    Proposal[] public proposals;\n\n    // Give `voter` the right to vote on this ballot.\n    // May only be called by `chairperson`.\n    function giveRightToVote(address voter) public {\n        // If the first argument of `require` evaluates\n        // to `false`, execution terminates and all\n        // changes to the state and to Ether balances\n        // are reverted.\n        // This used to consume all gas in old EVM versions, but\n        // not anymore.\n        // It is often a good idea to use `require` to check if\n        // functions are called correctly.\n        // As a second argument, you can also provide an\n        // explanation about what went wrong.\n        require(\n            msg.sender == chairperson,\n            \"Only chairperson can give right to vote.\"\n        );\n        require(\n            !voters[voter].voted,\n            \"The voter already voted.\"\n        );\n        require(voters[voter].weight == 0);\n        voters[voter].weight = 1;\n    }\n\n    /// Delegate your vote to the voter `to`.\n    function delegate(address to) public {\n        // assigns reference\n        Voter storage sender = voters[msg.sender];\n        require(!sender.voted, \"You already voted.\");\n\n        require(to != msg.sender, \"Self-delegation is disallowed.\");\n\n        // Forward the delegation as long as\n        // `to` also delegated.\n        // In general, such loops are very dangerous,\n        // because if they run too long, they might\n        // need more gas than is available in a block.\n        // In this case, the delegation will not be executed,\n        // but in other situations, such loops might\n        // cause a contract to get \"stuck\" completely.\n        while (voters[to].delegate != address(0)) {\n            to = voters[to].delegate;\n\n            // We found a loop in the delegation, not allowed.\n            require(to != msg.sender, \"Found loop in delegation.\");\n        }\n\n        // Since `sender` is a reference, this\n        // modifies `voters[msg.sender].voted`\n        sender.voted = true;\n        sender.delegate = to;\n        Voter storage delegate_ = voters[to];\n        if (delegate_.voted) {\n            // If the delegate already voted,\n            // directly add to the number of votes\n            proposals[delegate_.vote].voteCount += sender.weight;\n        } else {\n            // If the delegate did not vote yet,\n            // add to her weight.\n            delegate_.weight += sender.weight;\n        }\n    }\n\n    /// Give your vote (including votes delegated to you)\n    /// to proposal `proposals[proposal].name`.\n    function vote(uint proposal) public {\n        Voter storage sender = voters[msg.sender];\n        require(sender.weight != 0, \"Has no right to vote\");\n        require(!sender.voted, \"Already voted.\");\n        sender.voted = true;\n        sender.vote = proposal;\n\n        // If `proposal` is out of the range of the array,\n        // this will throw automatically and revert all\n        // changes.\n        proposals[proposal].voteCount += sender.weight;\n    }\n\n    /// @dev Computes the winning proposal taking all\n    /// previous votes into account.\n    function winningProposal() public view\n            returns (uint winningProposal_)\n    {\n        uint winningVoteCount = 0;\n        for (uint p = 0; p < proposals.length; p++) {\n            if (proposals[p].voteCount > winningVoteCount) {\n                winningVoteCount = proposals[p].voteCount;\n                winningProposal_ = p;\n            }\n        }\n    }\n\n    // Calls winningProposal() function to get the index\n    // of the winner contained in the proposals array and then\n    // returns the name of the winner\n    function winnerName() public view\n            returns (bytes32 winnerName_)\n    {\n        winnerName_ = proposals[winningProposal()].name;\n    }\n    \n\n}\n",
  "sourcePath": "/Users/unomasanori/projects/DEMO_MVP/trace-connectivity/contracts/exchange/Exchange.sol",
  "compiler": {
    "name": "solc",
    "version": "0.5.0+commit.1d4f565a.Emscripten.clang"
  },
  "schemaVersion": "3.0.1",
  "updatedAt": "2019-08-02T06:57:26.192Z",
  "devdoc": {
    "methods": {
      "approve(address,uint256)": {
        "details": "Approves another address to transfer the given token ID The zero address indicates there is no approved address. There can only be one approved address per token at a given time. Can only be called by the token owner or an approved operator.",
        "params": {
          "to": "address to be approved for the given token ID",
          "tokenId": "uint256 ID of the token to be approved"
        }
      },
      "balanceOf(address)": {
        "details": "Gets the balance of the specified address",
        "params": {
          "owner": "address to query the balance of"
        },
        "return": "uint256 representing the amount owned by the passed address"
      },
      "getApproved(uint256)": {
        "details": "Gets the approved address for a token ID, or zero if no address set Reverts if the token ID does not exist.",
        "params": {
          "tokenId": "uint256 ID of the token to query the approval of"
        },
        "return": "address currently approved for the given token ID"
      },
      "isOwner()": {
        "return": "true if `msg.sender` is the owner of the contract."
      },
      "mintTo(address)": {
        "details": "Mints a token to an address with a tokenURI.",
        "params": {
          "_to": "address of the future owner of the token"
        }
      },
      "name()": {
        "details": "Gets the token name",
        "return": "string representing the token name"
      },
      "owner()": {
        "return": "the address of the owner."
      },
      "ownerOf(uint256)": {
        "details": "Gets the owner of the specified token ID",
        "params": {
          "tokenId": "uint256 ID of the token to query the owner of"
        },
        "return": "owner address currently marked as the owner of the given token ID"
      },
      "renounceOwnership()": {
        "details": "Allows the current owner to relinquish control of the contract."
      },
      "safeTransferFrom(address,address,uint256)": {
        "details": "Safely transfers the ownership of a given token ID to another address If the target address is a contract, it must implement `onERC721Received`, which is called upon a safe transfer, and return the magic value `bytes4(keccak256(\"onERC721Received(address,address,uint256,bytes)\"))`; otherwise, the transfer is reverted.     * Requires the msg sender to be the owner, approved, or operator",
        "params": {
          "from": "current owner of the token",
          "to": "address to receive the ownership of the given token ID",
          "tokenId": "uint256 ID of the token to be transferred"
        }
      },
      "safeTransferFrom(address,address,uint256,bytes)": {
        "details": "Safely transfers the ownership of a given token ID to another address If the target address is a contract, it must implement `onERC721Received`, which is called upon a safe transfer, and return the magic value `bytes4(keccak256(\"onERC721Received(address,address,uint256,bytes)\"))`; otherwise, the transfer is reverted. Requires the msg sender to be the owner, approved, or operator",
        "params": {
          "_data": "bytes data to send along with a safe transfer check",
          "from": "current owner of the token",
          "to": "address to receive the ownership of the given token ID",
          "tokenId": "uint256 ID of the token to be transferred"
        }
      },
      "setApprovalForAll(address,bool)": {
        "details": "Sets or unsets the approval of a given operator An operator is allowed to transfer all tokens of the sender on their behalf",
        "params": {
          "approved": "representing the status of the approval to be set",
          "to": "operator address to set the approval"
        }
      },
      "supportsInterface(bytes4)": {
        "details": "implement supportsInterface(bytes4) using a lookup table"
      },
      "symbol()": {
        "details": "Gets the token symbol",
        "return": "string representing the token symbol"
      },
      "tokenByIndex(uint256)": {
        "details": "Gets the token ID at a given index of all the tokens in this contract Reverts if the index is greater or equal to the total number of tokens",
        "params": {
          "index": "uint256 representing the index to be accessed of the tokens list"
        },
        "return": "uint256 token ID at the given index of the tokens list"
      },
      "tokenOfOwnerByIndex(address,uint256)": {
        "details": "Gets the token ID at a given index of the tokens list of the requested owner",
        "params": {
          "index": "uint256 representing the index to be accessed of the requested tokens list",
          "owner": "address owning the tokens list to be accessed"
        },
        "return": "uint256 token ID at the given index of the tokens list owned by the requested address"
      },
      "totalSupply()": {
        "details": "Gets the total amount of tokens stored by the contract",
        "return": "uint256 representing the total amount of tokens"
      },
      "transferFrom(address,address,uint256)": {
        "details": "Transfers the ownership of a given token ID to another address Usage of this method is discouraged, use `safeTransferFrom` whenever possible Requires the msg sender to be the owner, approved, or operator",
        "params": {
          "from": "current owner of the token",
          "to": "address to receive the ownership of the given token ID",
          "tokenId": "uint256 ID of the token to be transferred"
        }
      },
      "transferOwnership(address)": {
        "details": "Allows the current owner to transfer control of the contract to a newOwner.",
        "params": {
          "newOwner": "The address to transfer ownership to."
        }
      },
      "transferOwnership(address,uint256)": {
        "details": "Allows the current owner to transfer control of the contract to a newOwner.",
        "params": {
          "newOwner": "The address to transfer ownership to."
        }
      },
      "winningProposal()": {
        "details": "Computes the winning proposal taking all previous votes into account."
      }
    }
  },
  "userdoc": {
    "methods": {
      "abort()": {
        "notice": "Abort the purchase and reclaim the ether. Can only be called by the seller before the contract is locked."
      },
      "confirmPurchase()": {
        "notice": "Confirm the purchase as buyer. Transaction has to include `2 * value` ether. The ether will be locked until confirmReceived is called."
      },
      "confirmReceived()": {
        "notice": "Confirm that you (the buyer) received the item. This will release the locked ether."
      },
      "delegate(address)": {
        "notice": "Delegate your vote to the voter `to`."
      },
      "isApprovedForAll(address,address)": {
        "notice": "Override isApprovedForAll to whitelist user's OpenSea proxy accounts to enable gas-less listings."
      },
      "renounceOwnership()": {
        "notice": "Renouncing to ownership will leave the contract without an owner. It will not be possible to call the functions with the `onlyOwner` modifier anymore."
      },
      "vote(uint256)": {
        "notice": "Give your vote (including votes delegated to you) to proposal `proposals[proposal].name`."
      }
    },
    "notice": "The Exchange contract does this and that buy and sell"
  }
}